{
	"Donation.sol": {
		"Donation": {
			"abi": [
				{
					"inputs": [],
					"stateMutability": "nonpayable",
					"type": "constructor"
				},
				{
					"anonymous": false,
					"inputs": [
						{
							"indexed": true,
							"internalType": "address",
							"name": "donor",
							"type": "address"
						},
						{
							"indexed": false,
							"internalType": "uint256",
							"name": "amount",
							"type": "uint256"
						}
					],
					"name": "DonationReceived",
					"type": "event"
				},
				{
					"inputs": [],
					"name": "MINIMUM_USD",
					"outputs": [
						{
							"internalType": "uint256",
							"name": "",
							"type": "uint256"
						}
					],
					"stateMutability": "view",
					"type": "function"
				},
				{
					"inputs": [
						{
							"internalType": "address",
							"name": "",
							"type": "address"
						}
					],
					"name": "donations",
					"outputs": [
						{
							"internalType": "uint256",
							"name": "",
							"type": "uint256"
						}
					],
					"stateMutability": "view",
					"type": "function"
				},
				{
					"inputs": [],
					"name": "fund",
					"outputs": [],
					"stateMutability": "payable",
					"type": "function"
				},
				{
					"inputs": [
						{
							"internalType": "uint256",
							"name": "",
							"type": "uint256"
						}
					],
					"name": "funders",
					"outputs": [
						{
							"internalType": "address",
							"name": "",
							"type": "address"
						}
					],
					"stateMutability": "view",
					"type": "function"
				},
				{
					"inputs": [],
					"name": "owner",
					"outputs": [
						{
							"internalType": "address",
							"name": "",
							"type": "address"
						}
					],
					"stateMutability": "view",
					"type": "function"
				},
				{
					"inputs": [],
					"name": "withdraw",
					"outputs": [],
					"stateMutability": "nonpayable",
					"type": "function"
				}
			],
			"devdoc": {
				"kind": "dev",
				"methods": {},
				"version": 1
			},
			"evm": {
				"assembly": "    /* \"Donation.sol\":131:1529  contract Donation {... */\n  mstore(0x40, 0x80)\n    /* \"Donation.sol\":519:620  constructor() {... */\n  callvalue\n  dup1\n  iszero\n  tag_1\n  jumpi\n  0x00\n  dup1\n  revert\ntag_1:\n  pop\n    /* \"Donation.sol\":552:562  msg.sender */\n  caller\n    /* \"Donation.sol\":544:549  owner */\n  0x00\n  dup1\n    /* \"Donation.sol\":544:562  owner = msg.sender */\n  0x0100\n  exp\n  dup2\n  sload\n  dup2\n  0xffffffffffffffffffffffffffffffffffffffff\n  mul\n  not\n  and\n  swap1\n  dup4\n  0xffffffffffffffffffffffffffffffffffffffff\n  and\n  mul\n  or\n  swap1\n  sstore\n  pop\n    /* \"Donation.sol\":131:1529  contract Donation {... */\n  dataSize(sub_0)\n  dup1\n  dataOffset(sub_0)\n  0x00\n  codecopy\n  0x00\n  return\nstop\n\nsub_0: assembly {\n        /* \"Donation.sol\":131:1529  contract Donation {... */\n      mstore(0x40, 0x80)\n      jumpi(tag_1, lt(calldatasize, 0x04))\n      shr(0xe0, calldataload(0x00))\n      dup1\n      0x3ccfd60b\n      eq\n      tag_2\n      jumpi\n      dup1\n      0x6b69a592\n      eq\n      tag_3\n      jumpi\n      dup1\n      0x8da5cb5b\n      eq\n      tag_4\n      jumpi\n      dup1\n      0xb60d4288\n      eq\n      tag_5\n      jumpi\n      dup1\n      0xcc6cb19a\n      eq\n      tag_6\n      jumpi\n      dup1\n      0xdc0d3dff\n      eq\n      tag_7\n      jumpi\n    tag_1:\n      0x00\n      dup1\n      revert\n        /* \"Donation.sol\":1184:1513  function withdraw() public onlyOwner{... */\n    tag_2:\n      callvalue\n      dup1\n      iszero\n      tag_8\n      jumpi\n      0x00\n      dup1\n      revert\n    tag_8:\n      pop\n      tag_9\n      tag_10\n      jump\t// in\n    tag_9:\n      stop\n        /* \"Donation.sol\":262:309  uint256 public constant MINIMUM_USD = 50 * 1e18 */\n    tag_3:\n      callvalue\n      dup1\n      iszero\n      tag_11\n      jumpi\n      0x00\n      dup1\n      revert\n    tag_11:\n      pop\n      tag_12\n      tag_13\n      jump\t// in\n    tag_12:\n      mload(0x40)\n      tag_14\n      swap2\n      swap1\n      tag_15\n      jump\t// in\n    tag_14:\n      mload(0x40)\n      dup1\n      swap2\n      sub\n      swap1\n      return\n        /* \"Donation.sol\":199:219  address public owner */\n    tag_4:\n      callvalue\n      dup1\n      iszero\n      tag_16\n      jumpi\n      0x00\n      dup1\n      revert\n    tag_16:\n      pop\n      tag_17\n      tag_18\n      jump\t// in\n    tag_17:\n      mload(0x40)\n      tag_19\n      swap2\n      swap1\n      tag_20\n      jump\t// in\n    tag_19:\n      mload(0x40)\n      dup1\n      swap2\n      sub\n      swap1\n      return\n        /* \"Donation.sol\":835:1176  function fund () public payable {... */\n    tag_5:\n      tag_21\n      tag_22\n      jump\t// in\n    tag_21:\n      stop\n        /* \"Donation.sol\":331:376  mapping (address => uint256) public donations */\n    tag_6:\n      callvalue\n      dup1\n      iszero\n      tag_23\n      jumpi\n      0x00\n      dup1\n      revert\n    tag_23:\n      pop\n      tag_24\n      0x04\n      dup1\n      calldatasize\n      sub\n      dup2\n      add\n      swap1\n      tag_25\n      swap2\n      swap1\n      tag_26\n      jump\t// in\n    tag_25:\n      tag_27\n      jump\t// in\n    tag_24:\n      mload(0x40)\n      tag_28\n      swap2\n      swap1\n      tag_15\n      jump\t// in\n    tag_28:\n      mload(0x40)\n      dup1\n      swap2\n      sub\n      swap1\n      return\n        /* \"Donation.sol\":383:408  address [] public funders */\n    tag_7:\n      callvalue\n      dup1\n      iszero\n      tag_29\n      jumpi\n      0x00\n      dup1\n      revert\n    tag_29:\n      pop\n      tag_30\n      0x04\n      dup1\n      calldatasize\n      sub\n      dup2\n      add\n      swap1\n      tag_31\n      swap2\n      swap1\n      tag_32\n      jump\t// in\n    tag_31:\n      tag_33\n      jump\t// in\n    tag_30:\n      mload(0x40)\n      tag_34\n      swap2\n      swap1\n      tag_20\n      jump\t// in\n    tag_34:\n      mload(0x40)\n      dup1\n      swap2\n      sub\n      swap1\n      return\n        /* \"Donation.sol\":1184:1513  function withdraw() public onlyOwner{... */\n    tag_10:\n        /* \"Donation.sol\":684:689  owner */\n      0x00\n      dup1\n      sload\n      swap1\n      0x0100\n      exp\n      swap1\n      div\n      0xffffffffffffffffffffffffffffffffffffffff\n      and\n        /* \"Donation.sol\":670:689  msg.sender == owner */\n      0xffffffffffffffffffffffffffffffffffffffff\n      and\n        /* \"Donation.sol\":670:680  msg.sender */\n      caller\n        /* \"Donation.sol\":670:689  msg.sender == owner */\n      0xffffffffffffffffffffffffffffffffffffffff\n      and\n      eq\n        /* \"Donation.sol\":661:722  require (msg.sender == owner,\"Only Owner can withdraw funds\") */\n      tag_36\n      jumpi\n      mload(0x40)\n      0x08c379a000000000000000000000000000000000000000000000000000000000\n      dup2\n      mstore\n      0x04\n      add\n      tag_37\n      swap1\n      tag_38\n      jump\t// in\n    tag_37:\n      mload(0x40)\n      dup1\n      swap2\n      sub\n      swap1\n      revert\n    tag_36:\n        /* \"Donation.sol\":1231:1254  uint256 contractBalance */\n      0x00\n        /* \"Donation.sol\":1257:1279  address (this).balance */\n      selfbalance\n        /* \"Donation.sol\":1231:1279  uint256 contractBalance = address (this).balance */\n      swap1\n      pop\n        /* \"Donation.sol\":1315:1316  0 */\n      0x00\n        /* \"Donation.sol\":1298:1313  contractBalance */\n      dup2\n        /* \"Donation.sol\":1298:1316  contractBalance >0 */\n      gt\n        /* \"Donation.sol\":1290:1318  require(contractBalance >0 ) */\n      tag_40\n      jumpi\n      0x00\n      dup1\n      revert\n    tag_40:\n        /* \"Donation.sol\":1371:1383  bool success */\n      0x00\n        /* \"Donation.sol\":1389:1394  owner */\n      dup1\n      0x00\n      swap1\n      sload\n      swap1\n      0x0100\n      exp\n      swap1\n      div\n      0xffffffffffffffffffffffffffffffffffffffff\n      and\n        /* \"Donation.sol\":1389:1399  owner.call */\n      0xffffffffffffffffffffffffffffffffffffffff\n      and\n        /* \"Donation.sol\":1407:1422  contractBalance */\n      dup3\n        /* \"Donation.sol\":1389:1427  owner.call{value: contractBalance}(\"\") */\n      mload(0x40)\n      tag_41\n      swap1\n      tag_42\n      jump\t// in\n    tag_41:\n      0x00\n      mload(0x40)\n      dup1\n      dup4\n      sub\n      dup2\n      dup6\n      dup8\n      gas\n      call\n      swap3\n      pop\n      pop\n      pop\n      returndatasize\n      dup1\n      0x00\n      dup2\n      eq\n      tag_45\n      jumpi\n      mload(0x40)\n      swap2\n      pop\n      and(add(returndatasize, 0x3f), not(0x1f))\n      dup3\n      add\n      0x40\n      mstore\n      returndatasize\n      dup3\n      mstore\n      returndatasize\n      0x00\n      0x20\n      dup5\n      add\n      returndatacopy\n      jump(tag_44)\n    tag_45:\n      0x60\n      swap2\n      pop\n    tag_44:\n      pop\n        /* \"Donation.sol\":1370:1427  (bool success, ) = owner.call{value: contractBalance}(\"\") */\n      pop\n      swap1\n      pop\n        /* \"Donation.sol\":1446:1453  success */\n      dup1\n        /* \"Donation.sol\":1438:1473  require(success ,\"Withdraw failed\") */\n      tag_46\n      jumpi\n      mload(0x40)\n      0x08c379a000000000000000000000000000000000000000000000000000000000\n      dup2\n      mstore\n      0x04\n      add\n      tag_47\n      swap1\n      tag_48\n      jump\t// in\n    tag_47:\n      mload(0x40)\n      dup1\n      swap2\n      sub\n      swap1\n      revert\n    tag_46:\n        /* \"Donation.sol\":1220:1513  {... */\n      pop\n      pop\n        /* \"Donation.sol\":1184:1513  function withdraw() public onlyOwner{... */\n      jump\t// out\n        /* \"Donation.sol\":262:309  uint256 public constant MINIMUM_USD = 50 * 1e18 */\n    tag_13:\n        /* \"Donation.sol\":300:309  50 * 1e18 */\n      0x02b5e3af16b1880000\n        /* \"Donation.sol\":262:309  uint256 public constant MINIMUM_USD = 50 * 1e18 */\n      dup2\n      jump\t// out\n        /* \"Donation.sol\":199:219  address public owner */\n    tag_18:\n      0x00\n      dup1\n      sload\n      swap1\n      0x0100\n      exp\n      swap1\n      div\n      0xffffffffffffffffffffffffffffffffffffffff\n      and\n      dup2\n      jump\t// out\n        /* \"Donation.sol\":835:1176  function fund () public payable {... */\n    tag_22:\n        /* \"Donation.sol\":300:309  50 * 1e18 */\n      0x02b5e3af16b1880000\n        /* \"Donation.sol\":900:929  msg.value.getConversionRate() */\n      tag_50\n        /* \"Donation.sol\":900:909  msg.value */\n      callvalue\n        /* \"Donation.sol\":900:927  msg.value.getConversionRate */\n      tag_51\n        /* \"Donation.sol\":900:929  msg.value.getConversionRate() */\n      jump\t// in\n    tag_50:\n        /* \"Donation.sol\":900:944  msg.value.getConversionRate() >= MINIMUM_USD */\n      lt\n      iszero\n        /* \"Donation.sol\":878:945  require(... */\n      tag_52\n      jumpi\n      0x00\n      dup1\n      revert\n    tag_52:\n        /* \"Donation.sol\":981:990  msg.value */\n      callvalue\n        /* \"Donation.sol\":956:965  donations */\n      0x01\n        /* \"Donation.sol\":956:977  donations[msg.sender] */\n      0x00\n        /* \"Donation.sol\":966:976  msg.sender */\n      caller\n        /* \"Donation.sol\":956:977  donations[msg.sender] */\n      0xffffffffffffffffffffffffffffffffffffffff\n      and\n      0xffffffffffffffffffffffffffffffffffffffff\n      and\n      dup2\n      mstore\n      0x20\n      add\n      swap1\n      dup2\n      mstore\n      0x20\n      add\n      0x00\n      keccak256\n      0x00\n        /* \"Donation.sol\":956:990  donations[msg.sender] += msg.value */\n      dup3\n      dup3\n      sload\n      tag_53\n      swap2\n      swap1\n      tag_54\n      jump\t// in\n    tag_53:\n      swap3\n      pop\n      pop\n      dup2\n      swap1\n      sstore\n      pop\n        /* \"Donation.sol\":1029:1036  funders */\n      0x02\n        /* \"Donation.sol\":1042:1052  msg.sender */\n      caller\n        /* \"Donation.sol\":1029:1053  funders.push(msg.sender) */\n      swap1\n      dup1\n      0x01\n      dup2\n      sload\n      add\n      dup1\n      dup3\n      sstore\n      dup1\n      swap2\n      pop\n      pop\n      0x01\n      swap1\n      sub\n      swap1\n      0x00\n      mstore\n      keccak256(0x00, 0x20)\n      add\n      0x00\n      swap1\n      swap2\n      swap1\n      swap2\n      swap1\n      swap2\n      0x0100\n      exp\n      dup2\n      sload\n      dup2\n      0xffffffffffffffffffffffffffffffffffffffff\n      mul\n      not\n      and\n      swap1\n      dup4\n      0xffffffffffffffffffffffffffffffffffffffff\n      and\n      mul\n      or\n      swap1\n      sstore\n      pop\n        /* \"Donation.sol\":1124:1134  msg.sender */\n      caller\n        /* \"Donation.sol\":1106:1147  DonationReceived (msg.sender , msg.value) */\n      0xffffffffffffffffffffffffffffffffffffffff\n      and\n      0x264f630d9efa0d07053a31163641d9fcc0adafc9d9e76f1c37c2ce3a558d2c52\n        /* \"Donation.sol\":1137:1146  msg.value */\n      callvalue\n        /* \"Donation.sol\":1106:1147  DonationReceived (msg.sender , msg.value) */\n      mload(0x40)\n      tag_56\n      swap2\n      swap1\n      tag_15\n      jump\t// in\n    tag_56:\n      mload(0x40)\n      dup1\n      swap2\n      sub\n      swap1\n      log2\n        /* \"Donation.sol\":835:1176  function fund () public payable {... */\n      jump\t// out\n        /* \"Donation.sol\":331:376  mapping (address => uint256) public donations */\n    tag_27:\n      mstore(0x20, 0x01)\n      dup1\n      0x00\n      mstore\n      keccak256(0x00, 0x40)\n      0x00\n      swap2\n      pop\n      swap1\n      pop\n      sload\n      dup2\n      jump\t// out\n        /* \"Donation.sol\":383:408  address [] public funders */\n    tag_33:\n      0x02\n      dup2\n      dup2\n      sload\n      dup2\n      lt\n      tag_57\n      jumpi\n      0x00\n      dup1\n      revert\n    tag_57:\n      swap1\n      0x00\n      mstore\n      keccak256(0x00, 0x20)\n      add\n      0x00\n      swap2\n      pop\n      sload\n      swap1\n      0x0100\n      exp\n      swap1\n      div\n      0xffffffffffffffffffffffffffffffffffffffff\n      and\n      dup2\n      jump\t// out\n        /* \"PriceConverter.sol\":695:991  function getConversionRate(uint256 ethAmount)... */\n    tag_51:\n        /* \"PriceConverter.sol\":788:795  uint256 */\n      0x00\n        /* \"PriceConverter.sol\":811:827  uint256 ethPrice */\n      dup1\n        /* \"PriceConverter.sol\":830:840  getPrice() */\n      tag_60\n        /* \"PriceConverter.sol\":830:838  getPrice */\n      tag_61\n        /* \"PriceConverter.sol\":830:840  getPrice() */\n      jump\t// in\n    tag_60:\n        /* \"PriceConverter.sol\":811:840  uint256 ethPrice = getPrice() */\n      swap1\n      pop\n        /* \"PriceConverter.sol\":980:984  1e18 */\n      0x0de0b6b3a7640000\n        /* \"PriceConverter.sol\":967:976  ethAmount */\n      dup4\n        /* \"PriceConverter.sol\":956:964  ethPrice */\n      dup3\n        /* \"PriceConverter.sol\":956:976  ethPrice * ethAmount */\n      tag_62\n      swap2\n      swap1\n      tag_63\n      jump\t// in\n    tag_62:\n        /* \"PriceConverter.sol\":955:984  (ethPrice * ethAmount) / 1e18 */\n      tag_64\n      swap2\n      swap1\n      tag_65\n      jump\t// in\n    tag_64:\n        /* \"PriceConverter.sol\":948:984  return (ethPrice * ethAmount) / 1e18 */\n      swap2\n      pop\n      pop\n        /* \"PriceConverter.sol\":695:991  function getConversionRate(uint256 ethAmount)... */\n      swap2\n      swap1\n      pop\n      jump\t// out\n        /* \"PriceConverter.sol\":366:689  function getPrice() internal view returns (uint256) {... */\n    tag_61:\n        /* \"PriceConverter.sol\":409:416  uint256 */\n      0x00\n        /* \"PriceConverter.sol\":428:459  AggregatorV3Interface pricefeed */\n      dup1\n        /* \"PriceConverter.sol\":497:539  0x694AA1769357215DE4FAC081bf1f309aDC325306 */\n      0x694aa1769357215de4fac081bf1f309adc325306\n        /* \"PriceConverter.sol\":428:549  AggregatorV3Interface pricefeed = AggregatorV3Interface(... */\n      swap1\n      pop\n        /* \"PriceConverter.sol\":562:574  int256 price */\n      0x00\n        /* \"PriceConverter.sol\":584:593  pricefeed */\n      dup2\n        /* \"PriceConverter.sol\":584:609  pricefeed.latestRoundData */\n      0xffffffffffffffffffffffffffffffffffffffff\n      and\n      0xfeaf968c\n        /* \"PriceConverter.sol\":584:611  pricefeed.latestRoundData() */\n      mload(0x40)\n      dup2\n      0xffffffff\n      and\n      0xe0\n      shl\n      dup2\n      mstore\n      0x04\n      add\n      0xa0\n      mload(0x40)\n      dup1\n      dup4\n      sub\n      dup2\n      dup7\n      gas\n      staticcall\n      iszero\n      dup1\n      iszero\n      tag_68\n      jumpi\n      returndatasize\n      0x00\n      dup1\n      returndatacopy\n      revert(0x00, returndatasize)\n    tag_68:\n      pop\n      pop\n      pop\n      pop\n      mload(0x40)\n      returndatasize\n      not(0x1f)\n      0x1f\n      dup3\n      add\n      and\n      dup3\n      add\n      dup1\n      0x40\n      mstore\n      pop\n      dup2\n      add\n      swap1\n      tag_69\n      swap2\n      swap1\n      tag_70\n      jump\t// in\n    tag_69:\n        /* \"PriceConverter.sol\":559:611  (, int256 price, , , ) = pricefeed.latestRoundData() */\n      pop\n      pop\n      pop\n      swap2\n      pop\n      pop\n        /* \"PriceConverter.sol\":645:649  1e10 */\n      0x02540be400\n        /* \"PriceConverter.sol\":637:642  price */\n      dup2\n        /* \"PriceConverter.sol\":637:649  price * 1e10 */\n      tag_71\n      swap2\n      swap1\n      tag_72\n      jump\t// in\n    tag_71:\n        /* \"PriceConverter.sol\":622:650  return uint256(price * 1e10) */\n      swap3\n      pop\n      pop\n      pop\n        /* \"PriceConverter.sol\":366:689  function getPrice() internal view returns (uint256) {... */\n      swap1\n      jump\t// out\n        /* \"#utility.yul\":7:84   */\n    tag_73:\n        /* \"#utility.yul\":44:51   */\n      0x00\n        /* \"#utility.yul\":73:78   */\n      dup2\n        /* \"#utility.yul\":62:78   */\n      swap1\n      pop\n        /* \"#utility.yul\":7:84   */\n      swap2\n      swap1\n      pop\n      jump\t// out\n        /* \"#utility.yul\":90:208   */\n    tag_74:\n        /* \"#utility.yul\":177:201   */\n      tag_108\n        /* \"#utility.yul\":195:200   */\n      dup2\n        /* \"#utility.yul\":177:201   */\n      tag_73\n      jump\t// in\n    tag_108:\n        /* \"#utility.yul\":172:175   */\n      dup3\n        /* \"#utility.yul\":165:202   */\n      mstore\n        /* \"#utility.yul\":90:208   */\n      pop\n      pop\n      jump\t// out\n        /* \"#utility.yul\":214:436   */\n    tag_15:\n        /* \"#utility.yul\":307:311   */\n      0x00\n        /* \"#utility.yul\":345:347   */\n      0x20\n        /* \"#utility.yul\":334:343   */\n      dup3\n        /* \"#utility.yul\":330:348   */\n      add\n        /* \"#utility.yul\":322:348   */\n      swap1\n      pop\n        /* \"#utility.yul\":358:429   */\n      tag_110\n        /* \"#utility.yul\":426:427   */\n      0x00\n        /* \"#utility.yul\":415:424   */\n      dup4\n        /* \"#utility.yul\":411:428   */\n      add\n        /* \"#utility.yul\":402:408   */\n      dup5\n        /* \"#utility.yul\":358:429   */\n      tag_74\n      jump\t// in\n    tag_110:\n        /* \"#utility.yul\":214:436   */\n      swap3\n      swap2\n      pop\n      pop\n      jump\t// out\n        /* \"#utility.yul\":442:568   */\n    tag_75:\n        /* \"#utility.yul\":479:486   */\n      0x00\n        /* \"#utility.yul\":519:561   */\n      0xffffffffffffffffffffffffffffffffffffffff\n        /* \"#utility.yul\":512:517   */\n      dup3\n        /* \"#utility.yul\":508:562   */\n      and\n        /* \"#utility.yul\":497:562   */\n      swap1\n      pop\n        /* \"#utility.yul\":442:568   */\n      swap2\n      swap1\n      pop\n      jump\t// out\n        /* \"#utility.yul\":574:670   */\n    tag_76:\n        /* \"#utility.yul\":611:618   */\n      0x00\n        /* \"#utility.yul\":640:664   */\n      tag_113\n        /* \"#utility.yul\":658:663   */\n      dup3\n        /* \"#utility.yul\":640:664   */\n      tag_75\n      jump\t// in\n    tag_113:\n        /* \"#utility.yul\":629:664   */\n      swap1\n      pop\n        /* \"#utility.yul\":574:670   */\n      swap2\n      swap1\n      pop\n      jump\t// out\n        /* \"#utility.yul\":676:794   */\n    tag_77:\n        /* \"#utility.yul\":763:787   */\n      tag_115\n        /* \"#utility.yul\":781:786   */\n      dup2\n        /* \"#utility.yul\":763:787   */\n      tag_76\n      jump\t// in\n    tag_115:\n        /* \"#utility.yul\":758:761   */\n      dup3\n        /* \"#utility.yul\":751:788   */\n      mstore\n        /* \"#utility.yul\":676:794   */\n      pop\n      pop\n      jump\t// out\n        /* \"#utility.yul\":800:1022   */\n    tag_20:\n        /* \"#utility.yul\":893:897   */\n      0x00\n        /* \"#utility.yul\":931:933   */\n      0x20\n        /* \"#utility.yul\":920:929   */\n      dup3\n        /* \"#utility.yul\":916:934   */\n      add\n        /* \"#utility.yul\":908:934   */\n      swap1\n      pop\n        /* \"#utility.yul\":944:1015   */\n      tag_117\n        /* \"#utility.yul\":1012:1013   */\n      0x00\n        /* \"#utility.yul\":1001:1010   */\n      dup4\n        /* \"#utility.yul\":997:1014   */\n      add\n        /* \"#utility.yul\":988:994   */\n      dup5\n        /* \"#utility.yul\":944:1015   */\n      tag_77\n      jump\t// in\n    tag_117:\n        /* \"#utility.yul\":800:1022   */\n      swap3\n      swap2\n      pop\n      pop\n      jump\t// out\n        /* \"#utility.yul\":1109:1226   */\n    tag_79:\n        /* \"#utility.yul\":1218:1219   */\n      0x00\n        /* \"#utility.yul\":1215:1216   */\n      dup1\n        /* \"#utility.yul\":1208:1220   */\n      revert\n        /* \"#utility.yul\":1355:1477   */\n    tag_81:\n        /* \"#utility.yul\":1428:1452   */\n      tag_122\n        /* \"#utility.yul\":1446:1451   */\n      dup2\n        /* \"#utility.yul\":1428:1452   */\n      tag_76\n      jump\t// in\n    tag_122:\n        /* \"#utility.yul\":1421:1426   */\n      dup2\n        /* \"#utility.yul\":1418:1453   */\n      eq\n        /* \"#utility.yul\":1408:1471   */\n      tag_123\n      jumpi\n        /* \"#utility.yul\":1467:1468   */\n      0x00\n        /* \"#utility.yul\":1464:1465   */\n      dup1\n        /* \"#utility.yul\":1457:1469   */\n      revert\n        /* \"#utility.yul\":1408:1471   */\n    tag_123:\n        /* \"#utility.yul\":1355:1477   */\n      pop\n      jump\t// out\n        /* \"#utility.yul\":1483:1622   */\n    tag_82:\n        /* \"#utility.yul\":1529:1534   */\n      0x00\n        /* \"#utility.yul\":1567:1573   */\n      dup2\n        /* \"#utility.yul\":1554:1574   */\n      calldataload\n        /* \"#utility.yul\":1545:1574   */\n      swap1\n      pop\n        /* \"#utility.yul\":1583:1616   */\n      tag_125\n        /* \"#utility.yul\":1610:1615   */\n      dup2\n        /* \"#utility.yul\":1583:1616   */\n      tag_81\n      jump\t// in\n    tag_125:\n        /* \"#utility.yul\":1483:1622   */\n      swap3\n      swap2\n      pop\n      pop\n      jump\t// out\n        /* \"#utility.yul\":1628:1957   */\n    tag_26:\n        /* \"#utility.yul\":1687:1693   */\n      0x00\n        /* \"#utility.yul\":1736:1738   */\n      0x20\n        /* \"#utility.yul\":1724:1733   */\n      dup3\n        /* \"#utility.yul\":1715:1722   */\n      dup5\n        /* \"#utility.yul\":1711:1734   */\n      sub\n        /* \"#utility.yul\":1707:1739   */\n      slt\n        /* \"#utility.yul\":1704:1823   */\n      iszero\n      tag_127\n      jumpi\n        /* \"#utility.yul\":1742:1821   */\n      tag_128\n      tag_79\n      jump\t// in\n    tag_128:\n        /* \"#utility.yul\":1704:1823   */\n    tag_127:\n        /* \"#utility.yul\":1862:1863   */\n      0x00\n        /* \"#utility.yul\":1887:1940   */\n      tag_129\n        /* \"#utility.yul\":1932:1939   */\n      dup5\n        /* \"#utility.yul\":1923:1929   */\n      dup3\n        /* \"#utility.yul\":1912:1921   */\n      dup6\n        /* \"#utility.yul\":1908:1930   */\n      add\n        /* \"#utility.yul\":1887:1940   */\n      tag_82\n      jump\t// in\n    tag_129:\n        /* \"#utility.yul\":1877:1940   */\n      swap2\n      pop\n        /* \"#utility.yul\":1833:1950   */\n      pop\n        /* \"#utility.yul\":1628:1957   */\n      swap3\n      swap2\n      pop\n      pop\n      jump\t// out\n        /* \"#utility.yul\":1963:2085   */\n    tag_83:\n        /* \"#utility.yul\":2036:2060   */\n      tag_131\n        /* \"#utility.yul\":2054:2059   */\n      dup2\n        /* \"#utility.yul\":2036:2060   */\n      tag_73\n      jump\t// in\n    tag_131:\n        /* \"#utility.yul\":2029:2034   */\n      dup2\n        /* \"#utility.yul\":2026:2061   */\n      eq\n        /* \"#utility.yul\":2016:2079   */\n      tag_132\n      jumpi\n        /* \"#utility.yul\":2075:2076   */\n      0x00\n        /* \"#utility.yul\":2072:2073   */\n      dup1\n        /* \"#utility.yul\":2065:2077   */\n      revert\n        /* \"#utility.yul\":2016:2079   */\n    tag_132:\n        /* \"#utility.yul\":1963:2085   */\n      pop\n      jump\t// out\n        /* \"#utility.yul\":2091:2230   */\n    tag_84:\n        /* \"#utility.yul\":2137:2142   */\n      0x00\n        /* \"#utility.yul\":2175:2181   */\n      dup2\n        /* \"#utility.yul\":2162:2182   */\n      calldataload\n        /* \"#utility.yul\":2153:2182   */\n      swap1\n      pop\n        /* \"#utility.yul\":2191:2224   */\n      tag_134\n        /* \"#utility.yul\":2218:2223   */\n      dup2\n        /* \"#utility.yul\":2191:2224   */\n      tag_83\n      jump\t// in\n    tag_134:\n        /* \"#utility.yul\":2091:2230   */\n      swap3\n      swap2\n      pop\n      pop\n      jump\t// out\n        /* \"#utility.yul\":2236:2565   */\n    tag_32:\n        /* \"#utility.yul\":2295:2301   */\n      0x00\n        /* \"#utility.yul\":2344:2346   */\n      0x20\n        /* \"#utility.yul\":2332:2341   */\n      dup3\n        /* \"#utility.yul\":2323:2330   */\n      dup5\n        /* \"#utility.yul\":2319:2342   */\n      sub\n        /* \"#utility.yul\":2315:2347   */\n      slt\n        /* \"#utility.yul\":2312:2431   */\n      iszero\n      tag_136\n      jumpi\n        /* \"#utility.yul\":2350:2429   */\n      tag_137\n      tag_79\n      jump\t// in\n    tag_137:\n        /* \"#utility.yul\":2312:2431   */\n    tag_136:\n        /* \"#utility.yul\":2470:2471   */\n      0x00\n        /* \"#utility.yul\":2495:2548   */\n      tag_138\n        /* \"#utility.yul\":2540:2547   */\n      dup5\n        /* \"#utility.yul\":2531:2537   */\n      dup3\n        /* \"#utility.yul\":2520:2529   */\n      dup6\n        /* \"#utility.yul\":2516:2538   */\n      add\n        /* \"#utility.yul\":2495:2548   */\n      tag_84\n      jump\t// in\n    tag_138:\n        /* \"#utility.yul\":2485:2548   */\n      swap2\n      pop\n        /* \"#utility.yul\":2441:2558   */\n      pop\n        /* \"#utility.yul\":2236:2565   */\n      swap3\n      swap2\n      pop\n      pop\n      jump\t// out\n        /* \"#utility.yul\":2571:2740   */\n    tag_85:\n        /* \"#utility.yul\":2655:2666   */\n      0x00\n        /* \"#utility.yul\":2689:2695   */\n      dup3\n        /* \"#utility.yul\":2684:2687   */\n      dup3\n        /* \"#utility.yul\":2677:2696   */\n      mstore\n        /* \"#utility.yul\":2729:2733   */\n      0x20\n        /* \"#utility.yul\":2724:2727   */\n      dup3\n        /* \"#utility.yul\":2720:2734   */\n      add\n        /* \"#utility.yul\":2705:2734   */\n      swap1\n      pop\n        /* \"#utility.yul\":2571:2740   */\n      swap3\n      swap2\n      pop\n      pop\n      jump\t// out\n        /* \"#utility.yul\":2746:2925   */\n    tag_86:\n        /* \"#utility.yul\":2886:2917   */\n      0x4f6e6c79204f776e65722063616e2077697468647261772066756e6473000000\n        /* \"#utility.yul\":2882:2883   */\n      0x00\n        /* \"#utility.yul\":2874:2880   */\n      dup3\n        /* \"#utility.yul\":2870:2884   */\n      add\n        /* \"#utility.yul\":2863:2918   */\n      mstore\n        /* \"#utility.yul\":2746:2925   */\n      pop\n      jump\t// out\n        /* \"#utility.yul\":2931:3297   */\n    tag_87:\n        /* \"#utility.yul\":3073:3076   */\n      0x00\n        /* \"#utility.yul\":3094:3161   */\n      tag_142\n        /* \"#utility.yul\":3158:3160   */\n      0x1d\n        /* \"#utility.yul\":3153:3156   */\n      dup4\n        /* \"#utility.yul\":3094:3161   */\n      tag_85\n      jump\t// in\n    tag_142:\n        /* \"#utility.yul\":3087:3161   */\n      swap2\n      pop\n        /* \"#utility.yul\":3170:3263   */\n      tag_143\n        /* \"#utility.yul\":3259:3262   */\n      dup3\n        /* \"#utility.yul\":3170:3263   */\n      tag_86\n      jump\t// in\n    tag_143:\n        /* \"#utility.yul\":3288:3290   */\n      0x20\n        /* \"#utility.yul\":3283:3286   */\n      dup3\n        /* \"#utility.yul\":3279:3291   */\n      add\n        /* \"#utility.yul\":3272:3291   */\n      swap1\n      pop\n        /* \"#utility.yul\":2931:3297   */\n      swap2\n      swap1\n      pop\n      jump\t// out\n        /* \"#utility.yul\":3303:3722   */\n    tag_38:\n        /* \"#utility.yul\":3469:3473   */\n      0x00\n        /* \"#utility.yul\":3507:3509   */\n      0x20\n        /* \"#utility.yul\":3496:3505   */\n      dup3\n        /* \"#utility.yul\":3492:3510   */\n      add\n        /* \"#utility.yul\":3484:3510   */\n      swap1\n      pop\n        /* \"#utility.yul\":3556:3565   */\n      dup2\n        /* \"#utility.yul\":3550:3554   */\n      dup2\n        /* \"#utility.yul\":3546:3566   */\n      sub\n        /* \"#utility.yul\":3542:3543   */\n      0x00\n        /* \"#utility.yul\":3531:3540   */\n      dup4\n        /* \"#utility.yul\":3527:3544   */\n      add\n        /* \"#utility.yul\":3520:3567   */\n      mstore\n        /* \"#utility.yul\":3584:3715   */\n      tag_145\n        /* \"#utility.yul\":3710:3714   */\n      dup2\n        /* \"#utility.yul\":3584:3715   */\n      tag_87\n      jump\t// in\n    tag_145:\n        /* \"#utility.yul\":3576:3715   */\n      swap1\n      pop\n        /* \"#utility.yul\":3303:3722   */\n      swap2\n      swap1\n      pop\n      jump\t// out\n        /* \"#utility.yul\":3728:3875   */\n    tag_88:\n        /* \"#utility.yul\":3829:3840   */\n      0x00\n        /* \"#utility.yul\":3866:3869   */\n      dup2\n        /* \"#utility.yul\":3851:3869   */\n      swap1\n      pop\n        /* \"#utility.yul\":3728:3875   */\n      swap3\n      swap2\n      pop\n      pop\n      jump\t// out\n        /* \"#utility.yul\":3881:3995   */\n    tag_89:\n      pop\n      jump\t// out\n        /* \"#utility.yul\":4001:4399   */\n    tag_90:\n        /* \"#utility.yul\":4160:4163   */\n      0x00\n        /* \"#utility.yul\":4181:4264   */\n      tag_149\n        /* \"#utility.yul\":4262:4263   */\n      0x00\n        /* \"#utility.yul\":4257:4260   */\n      dup4\n        /* \"#utility.yul\":4181:4264   */\n      tag_88\n      jump\t// in\n    tag_149:\n        /* \"#utility.yul\":4174:4264   */\n      swap2\n      pop\n        /* \"#utility.yul\":4273:4366   */\n      tag_150\n        /* \"#utility.yul\":4362:4365   */\n      dup3\n        /* \"#utility.yul\":4273:4366   */\n      tag_89\n      jump\t// in\n    tag_150:\n        /* \"#utility.yul\":4391:4392   */\n      0x00\n        /* \"#utility.yul\":4386:4389   */\n      dup3\n        /* \"#utility.yul\":4382:4393   */\n      add\n        /* \"#utility.yul\":4375:4393   */\n      swap1\n      pop\n        /* \"#utility.yul\":4001:4399   */\n      swap2\n      swap1\n      pop\n      jump\t// out\n        /* \"#utility.yul\":4405:4784   */\n    tag_42:\n        /* \"#utility.yul\":4589:4592   */\n      0x00\n        /* \"#utility.yul\":4611:4758   */\n      tag_152\n        /* \"#utility.yul\":4754:4757   */\n      dup3\n        /* \"#utility.yul\":4611:4758   */\n      tag_90\n      jump\t// in\n    tag_152:\n        /* \"#utility.yul\":4604:4758   */\n      swap2\n      pop\n        /* \"#utility.yul\":4775:4778   */\n      dup2\n        /* \"#utility.yul\":4768:4778   */\n      swap1\n      pop\n        /* \"#utility.yul\":4405:4784   */\n      swap2\n      swap1\n      pop\n      jump\t// out\n        /* \"#utility.yul\":4790:4955   */\n    tag_91:\n        /* \"#utility.yul\":4930:4947   */\n      0x5769746864726177206661696c65640000000000000000000000000000000000\n        /* \"#utility.yul\":4926:4927   */\n      0x00\n        /* \"#utility.yul\":4918:4924   */\n      dup3\n        /* \"#utility.yul\":4914:4928   */\n      add\n        /* \"#utility.yul\":4907:4948   */\n      mstore\n        /* \"#utility.yul\":4790:4955   */\n      pop\n      jump\t// out\n        /* \"#utility.yul\":4961:5327   */\n    tag_92:\n        /* \"#utility.yul\":5103:5106   */\n      0x00\n        /* \"#utility.yul\":5124:5191   */\n      tag_155\n        /* \"#utility.yul\":5188:5190   */\n      0x0f\n        /* \"#utility.yul\":5183:5186   */\n      dup4\n        /* \"#utility.yul\":5124:5191   */\n      tag_85\n      jump\t// in\n    tag_155:\n        /* \"#utility.yul\":5117:5191   */\n      swap2\n      pop\n        /* \"#utility.yul\":5200:5293   */\n      tag_156\n        /* \"#utility.yul\":5289:5292   */\n      dup3\n        /* \"#utility.yul\":5200:5293   */\n      tag_91\n      jump\t// in\n    tag_156:\n        /* \"#utility.yul\":5318:5320   */\n      0x20\n        /* \"#utility.yul\":5313:5316   */\n      dup3\n        /* \"#utility.yul\":5309:5321   */\n      add\n        /* \"#utility.yul\":5302:5321   */\n      swap1\n      pop\n        /* \"#utility.yul\":4961:5327   */\n      swap2\n      swap1\n      pop\n      jump\t// out\n        /* \"#utility.yul\":5333:5752   */\n    tag_48:\n        /* \"#utility.yul\":5499:5503   */\n      0x00\n        /* \"#utility.yul\":5537:5539   */\n      0x20\n        /* \"#utility.yul\":5526:5535   */\n      dup3\n        /* \"#utility.yul\":5522:5540   */\n      add\n        /* \"#utility.yul\":5514:5540   */\n      swap1\n      pop\n        /* \"#utility.yul\":5586:5595   */\n      dup2\n        /* \"#utility.yul\":5580:5584   */\n      dup2\n        /* \"#utility.yul\":5576:5596   */\n      sub\n        /* \"#utility.yul\":5572:5573   */\n      0x00\n        /* \"#utility.yul\":5561:5570   */\n      dup4\n        /* \"#utility.yul\":5557:5574   */\n      add\n        /* \"#utility.yul\":5550:5597   */\n      mstore\n        /* \"#utility.yul\":5614:5745   */\n      tag_158\n        /* \"#utility.yul\":5740:5744   */\n      dup2\n        /* \"#utility.yul\":5614:5745   */\n      tag_92\n      jump\t// in\n    tag_158:\n        /* \"#utility.yul\":5606:5745   */\n      swap1\n      pop\n        /* \"#utility.yul\":5333:5752   */\n      swap2\n      swap1\n      pop\n      jump\t// out\n        /* \"#utility.yul\":5758:5938   */\n    tag_93:\n        /* \"#utility.yul\":5806:5883   */\n      0x4e487b7100000000000000000000000000000000000000000000000000000000\n        /* \"#utility.yul\":5803:5804   */\n      0x00\n        /* \"#utility.yul\":5796:5884   */\n      mstore\n        /* \"#utility.yul\":5903:5907   */\n      0x11\n        /* \"#utility.yul\":5900:5901   */\n      0x04\n        /* \"#utility.yul\":5893:5908   */\n      mstore\n        /* \"#utility.yul\":5927:5931   */\n      0x24\n        /* \"#utility.yul\":5924:5925   */\n      0x00\n        /* \"#utility.yul\":5917:5932   */\n      revert\n        /* \"#utility.yul\":5944:6135   */\n    tag_54:\n        /* \"#utility.yul\":5984:5987   */\n      0x00\n        /* \"#utility.yul\":6003:6023   */\n      tag_161\n        /* \"#utility.yul\":6021:6022   */\n      dup3\n        /* \"#utility.yul\":6003:6023   */\n      tag_73\n      jump\t// in\n    tag_161:\n        /* \"#utility.yul\":5998:6023   */\n      swap2\n      pop\n        /* \"#utility.yul\":6037:6057   */\n      tag_162\n        /* \"#utility.yul\":6055:6056   */\n      dup4\n        /* \"#utility.yul\":6037:6057   */\n      tag_73\n      jump\t// in\n    tag_162:\n        /* \"#utility.yul\":6032:6057   */\n      swap3\n      pop\n        /* \"#utility.yul\":6080:6081   */\n      dup3\n        /* \"#utility.yul\":6077:6078   */\n      dup3\n        /* \"#utility.yul\":6073:6082   */\n      add\n        /* \"#utility.yul\":6066:6082   */\n      swap1\n      pop\n        /* \"#utility.yul\":6101:6104   */\n      dup1\n        /* \"#utility.yul\":6098:6099   */\n      dup3\n        /* \"#utility.yul\":6095:6105   */\n      gt\n        /* \"#utility.yul\":6092:6128   */\n      iszero\n      tag_163\n      jumpi\n        /* \"#utility.yul\":6108:6126   */\n      tag_164\n      tag_93\n      jump\t// in\n    tag_164:\n        /* \"#utility.yul\":6092:6128   */\n    tag_163:\n        /* \"#utility.yul\":5944:6135   */\n      swap3\n      swap2\n      pop\n      pop\n      jump\t// out\n        /* \"#utility.yul\":6141:6551   */\n    tag_63:\n        /* \"#utility.yul\":6181:6188   */\n      0x00\n        /* \"#utility.yul\":6204:6224   */\n      tag_166\n        /* \"#utility.yul\":6222:6223   */\n      dup3\n        /* \"#utility.yul\":6204:6224   */\n      tag_73\n      jump\t// in\n    tag_166:\n        /* \"#utility.yul\":6199:6224   */\n      swap2\n      pop\n        /* \"#utility.yul\":6238:6258   */\n      tag_167\n        /* \"#utility.yul\":6256:6257   */\n      dup4\n        /* \"#utility.yul\":6238:6258   */\n      tag_73\n      jump\t// in\n    tag_167:\n        /* \"#utility.yul\":6233:6258   */\n      swap3\n      pop\n        /* \"#utility.yul\":6293:6294   */\n      dup3\n        /* \"#utility.yul\":6290:6291   */\n      dup3\n        /* \"#utility.yul\":6286:6295   */\n      mul\n        /* \"#utility.yul\":6315:6345   */\n      tag_168\n        /* \"#utility.yul\":6333:6344   */\n      dup2\n        /* \"#utility.yul\":6315:6345   */\n      tag_73\n      jump\t// in\n    tag_168:\n        /* \"#utility.yul\":6304:6345   */\n      swap2\n      pop\n        /* \"#utility.yul\":6494:6495   */\n      dup3\n        /* \"#utility.yul\":6485:6492   */\n      dup3\n        /* \"#utility.yul\":6481:6496   */\n      div\n        /* \"#utility.yul\":6478:6479   */\n      dup5\n        /* \"#utility.yul\":6475:6497   */\n      eq\n        /* \"#utility.yul\":6455:6456   */\n      dup4\n        /* \"#utility.yul\":6448:6457   */\n      iszero\n        /* \"#utility.yul\":6428:6511   */\n      or\n        /* \"#utility.yul\":6405:6544   */\n      tag_169\n      jumpi\n        /* \"#utility.yul\":6524:6542   */\n      tag_170\n      tag_93\n      jump\t// in\n    tag_170:\n        /* \"#utility.yul\":6405:6544   */\n    tag_169:\n        /* \"#utility.yul\":6189:6551   */\n      pop\n        /* \"#utility.yul\":6141:6551   */\n      swap3\n      swap2\n      pop\n      pop\n      jump\t// out\n        /* \"#utility.yul\":6557:6737   */\n    tag_94:\n        /* \"#utility.yul\":6605:6682   */\n      0x4e487b7100000000000000000000000000000000000000000000000000000000\n        /* \"#utility.yul\":6602:6603   */\n      0x00\n        /* \"#utility.yul\":6595:6683   */\n      mstore\n        /* \"#utility.yul\":6702:6706   */\n      0x12\n        /* \"#utility.yul\":6699:6700   */\n      0x04\n        /* \"#utility.yul\":6692:6707   */\n      mstore\n        /* \"#utility.yul\":6726:6730   */\n      0x24\n        /* \"#utility.yul\":6723:6724   */\n      0x00\n        /* \"#utility.yul\":6716:6731   */\n      revert\n        /* \"#utility.yul\":6743:6928   */\n    tag_65:\n        /* \"#utility.yul\":6783:6784   */\n      0x00\n        /* \"#utility.yul\":6800:6820   */\n      tag_173\n        /* \"#utility.yul\":6818:6819   */\n      dup3\n        /* \"#utility.yul\":6800:6820   */\n      tag_73\n      jump\t// in\n    tag_173:\n        /* \"#utility.yul\":6795:6820   */\n      swap2\n      pop\n        /* \"#utility.yul\":6834:6854   */\n      tag_174\n        /* \"#utility.yul\":6852:6853   */\n      dup4\n        /* \"#utility.yul\":6834:6854   */\n      tag_73\n      jump\t// in\n    tag_174:\n        /* \"#utility.yul\":6829:6854   */\n      swap3\n      pop\n        /* \"#utility.yul\":6873:6874   */\n      dup3\n        /* \"#utility.yul\":6863:6898   */\n      tag_175\n      jumpi\n        /* \"#utility.yul\":6878:6896   */\n      tag_176\n      tag_94\n      jump\t// in\n    tag_176:\n        /* \"#utility.yul\":6863:6898   */\n    tag_175:\n        /* \"#utility.yul\":6920:6921   */\n      dup3\n        /* \"#utility.yul\":6917:6918   */\n      dup3\n        /* \"#utility.yul\":6913:6922   */\n      div\n        /* \"#utility.yul\":6908:6922   */\n      swap1\n      pop\n        /* \"#utility.yul\":6743:6928   */\n      swap3\n      swap2\n      pop\n      pop\n      jump\t// out\n        /* \"#utility.yul\":6934:7039   */\n    tag_95:\n        /* \"#utility.yul\":6970:6977   */\n      0x00\n        /* \"#utility.yul\":7010:7032   */\n      0xffffffffffffffffffff\n        /* \"#utility.yul\":7003:7008   */\n      dup3\n        /* \"#utility.yul\":6999:7033   */\n      and\n        /* \"#utility.yul\":6988:7033   */\n      swap1\n      pop\n        /* \"#utility.yul\":6934:7039   */\n      swap2\n      swap1\n      pop\n      jump\t// out\n        /* \"#utility.yul\":7045:7165   */\n    tag_96:\n        /* \"#utility.yul\":7117:7140   */\n      tag_179\n        /* \"#utility.yul\":7134:7139   */\n      dup2\n        /* \"#utility.yul\":7117:7140   */\n      tag_95\n      jump\t// in\n    tag_179:\n        /* \"#utility.yul\":7110:7115   */\n      dup2\n        /* \"#utility.yul\":7107:7141   */\n      eq\n        /* \"#utility.yul\":7097:7159   */\n      tag_180\n      jumpi\n        /* \"#utility.yul\":7155:7156   */\n      0x00\n        /* \"#utility.yul\":7152:7153   */\n      dup1\n        /* \"#utility.yul\":7145:7157   */\n      revert\n        /* \"#utility.yul\":7097:7159   */\n    tag_180:\n        /* \"#utility.yul\":7045:7165   */\n      pop\n      jump\t// out\n        /* \"#utility.yul\":7171:7312   */\n    tag_97:\n        /* \"#utility.yul\":7227:7232   */\n      0x00\n        /* \"#utility.yul\":7258:7264   */\n      dup2\n        /* \"#utility.yul\":7252:7265   */\n      mload\n        /* \"#utility.yul\":7243:7265   */\n      swap1\n      pop\n        /* \"#utility.yul\":7274:7306   */\n      tag_182\n        /* \"#utility.yul\":7300:7305   */\n      dup2\n        /* \"#utility.yul\":7274:7306   */\n      tag_96\n      jump\t// in\n    tag_182:\n        /* \"#utility.yul\":7171:7312   */\n      swap3\n      swap2\n      pop\n      pop\n      jump\t// out\n        /* \"#utility.yul\":7318:7394   */\n    tag_98:\n        /* \"#utility.yul\":7354:7361   */\n      0x00\n        /* \"#utility.yul\":7383:7388   */\n      dup2\n        /* \"#utility.yul\":7372:7388   */\n      swap1\n      pop\n        /* \"#utility.yul\":7318:7394   */\n      swap2\n      swap1\n      pop\n      jump\t// out\n        /* \"#utility.yul\":7400:7520   */\n    tag_99:\n        /* \"#utility.yul\":7472:7495   */\n      tag_185\n        /* \"#utility.yul\":7489:7494   */\n      dup2\n        /* \"#utility.yul\":7472:7495   */\n      tag_98\n      jump\t// in\n    tag_185:\n        /* \"#utility.yul\":7465:7470   */\n      dup2\n        /* \"#utility.yul\":7462:7496   */\n      eq\n        /* \"#utility.yul\":7452:7514   */\n      tag_186\n      jumpi\n        /* \"#utility.yul\":7510:7511   */\n      0x00\n        /* \"#utility.yul\":7507:7508   */\n      dup1\n        /* \"#utility.yul\":7500:7512   */\n      revert\n        /* \"#utility.yul\":7452:7514   */\n    tag_186:\n        /* \"#utility.yul\":7400:7520   */\n      pop\n      jump\t// out\n        /* \"#utility.yul\":7526:7667   */\n    tag_100:\n        /* \"#utility.yul\":7582:7587   */\n      0x00\n        /* \"#utility.yul\":7613:7619   */\n      dup2\n        /* \"#utility.yul\":7607:7620   */\n      mload\n        /* \"#utility.yul\":7598:7620   */\n      swap1\n      pop\n        /* \"#utility.yul\":7629:7661   */\n      tag_188\n        /* \"#utility.yul\":7655:7660   */\n      dup2\n        /* \"#utility.yul\":7629:7661   */\n      tag_99\n      jump\t// in\n    tag_188:\n        /* \"#utility.yul\":7526:7667   */\n      swap3\n      swap2\n      pop\n      pop\n      jump\t// out\n        /* \"#utility.yul\":7673:7816   */\n    tag_101:\n        /* \"#utility.yul\":7730:7735   */\n      0x00\n        /* \"#utility.yul\":7761:7767   */\n      dup2\n        /* \"#utility.yul\":7755:7768   */\n      mload\n        /* \"#utility.yul\":7746:7768   */\n      swap1\n      pop\n        /* \"#utility.yul\":7777:7810   */\n      tag_190\n        /* \"#utility.yul\":7804:7809   */\n      dup2\n        /* \"#utility.yul\":7777:7810   */\n      tag_83\n      jump\t// in\n    tag_190:\n        /* \"#utility.yul\":7673:7816   */\n      swap3\n      swap2\n      pop\n      pop\n      jump\t// out\n        /* \"#utility.yul\":7822:7950   */\n    tag_102:\n        /* \"#utility.yul\":7859:7866   */\n      0x00\n        /* \"#utility.yul\":7899:7943   */\n      0xffffffffffffffffffffffffffffffffffffffffff\n        /* \"#utility.yul\":7892:7897   */\n      dup3\n        /* \"#utility.yul\":7888:7944   */\n      and\n        /* \"#utility.yul\":7877:7944   */\n      swap1\n      pop\n        /* \"#utility.yul\":7822:7950   */\n      swap2\n      swap1\n      pop\n      jump\t// out\n        /* \"#utility.yul\":7956:8078   */\n    tag_103:\n        /* \"#utility.yul\":8029:8053   */\n      tag_193\n        /* \"#utility.yul\":8047:8052   */\n      dup2\n        /* \"#utility.yul\":8029:8053   */\n      tag_102\n      jump\t// in\n    tag_193:\n        /* \"#utility.yul\":8022:8027   */\n      dup2\n        /* \"#utility.yul\":8019:8054   */\n      eq\n        /* \"#utility.yul\":8009:8072   */\n      tag_194\n      jumpi\n        /* \"#utility.yul\":8068:8069   */\n      0x00\n        /* \"#utility.yul\":8065:8066   */\n      dup1\n        /* \"#utility.yul\":8058:8070   */\n      revert\n        /* \"#utility.yul\":8009:8072   */\n    tag_194:\n        /* \"#utility.yul\":7956:8078   */\n      pop\n      jump\t// out\n        /* \"#utility.yul\":8084:8227   */\n    tag_104:\n        /* \"#utility.yul\":8141:8146   */\n      0x00\n        /* \"#utility.yul\":8172:8178   */\n      dup2\n        /* \"#utility.yul\":8166:8179   */\n      mload\n        /* \"#utility.yul\":8157:8179   */\n      swap1\n      pop\n        /* \"#utility.yul\":8188:8221   */\n      tag_196\n        /* \"#utility.yul\":8215:8220   */\n      dup2\n        /* \"#utility.yul\":8188:8221   */\n      tag_103\n      jump\t// in\n    tag_196:\n        /* \"#utility.yul\":8084:8227   */\n      swap3\n      swap2\n      pop\n      pop\n      jump\t// out\n        /* \"#utility.yul\":8233:9206   */\n    tag_70:\n        /* \"#utility.yul\":8337:8343   */\n      0x00\n        /* \"#utility.yul\":8345:8351   */\n      dup1\n        /* \"#utility.yul\":8353:8359   */\n      0x00\n        /* \"#utility.yul\":8361:8367   */\n      dup1\n        /* \"#utility.yul\":8369:8375   */\n      0x00\n        /* \"#utility.yul\":8418:8421   */\n      0xa0\n        /* \"#utility.yul\":8406:8415   */\n      dup7\n        /* \"#utility.yul\":8397:8404   */\n      dup9\n        /* \"#utility.yul\":8393:8416   */\n      sub\n        /* \"#utility.yul\":8389:8422   */\n      slt\n        /* \"#utility.yul\":8386:8506   */\n      iszero\n      tag_198\n      jumpi\n        /* \"#utility.yul\":8425:8504   */\n      tag_199\n      tag_79\n      jump\t// in\n    tag_199:\n        /* \"#utility.yul\":8386:8506   */\n    tag_198:\n        /* \"#utility.yul\":8545:8546   */\n      0x00\n        /* \"#utility.yul\":8570:8633   */\n      tag_200\n        /* \"#utility.yul\":8625:8632   */\n      dup9\n        /* \"#utility.yul\":8616:8622   */\n      dup3\n        /* \"#utility.yul\":8605:8614   */\n      dup10\n        /* \"#utility.yul\":8601:8623   */\n      add\n        /* \"#utility.yul\":8570:8633   */\n      tag_97\n      jump\t// in\n    tag_200:\n        /* \"#utility.yul\":8560:8633   */\n      swap6\n      pop\n        /* \"#utility.yul\":8516:8643   */\n      pop\n        /* \"#utility.yul\":8682:8684   */\n      0x20\n        /* \"#utility.yul\":8708:8771   */\n      tag_201\n        /* \"#utility.yul\":8763:8770   */\n      dup9\n        /* \"#utility.yul\":8754:8760   */\n      dup3\n        /* \"#utility.yul\":8743:8752   */\n      dup10\n        /* \"#utility.yul\":8739:8761   */\n      add\n        /* \"#utility.yul\":8708:8771   */\n      tag_100\n      jump\t// in\n    tag_201:\n        /* \"#utility.yul\":8698:8771   */\n      swap5\n      pop\n        /* \"#utility.yul\":8653:8781   */\n      pop\n        /* \"#utility.yul\":8820:8822   */\n      0x40\n        /* \"#utility.yul\":8846:8910   */\n      tag_202\n        /* \"#utility.yul\":8902:8909   */\n      dup9\n        /* \"#utility.yul\":8893:8899   */\n      dup3\n        /* \"#utility.yul\":8882:8891   */\n      dup10\n        /* \"#utility.yul\":8878:8900   */\n      add\n        /* \"#utility.yul\":8846:8910   */\n      tag_101\n      jump\t// in\n    tag_202:\n        /* \"#utility.yul\":8836:8910   */\n      swap4\n      pop\n        /* \"#utility.yul\":8791:8920   */\n      pop\n        /* \"#utility.yul\":8959:8961   */\n      0x60\n        /* \"#utility.yul\":8985:9049   */\n      tag_203\n        /* \"#utility.yul\":9041:9048   */\n      dup9\n        /* \"#utility.yul\":9032:9038   */\n      dup3\n        /* \"#utility.yul\":9021:9030   */\n      dup10\n        /* \"#utility.yul\":9017:9039   */\n      add\n        /* \"#utility.yul\":8985:9049   */\n      tag_101\n      jump\t// in\n    tag_203:\n        /* \"#utility.yul\":8975:9049   */\n      swap3\n      pop\n        /* \"#utility.yul\":8930:9059   */\n      pop\n        /* \"#utility.yul\":9098:9101   */\n      0x80\n        /* \"#utility.yul\":9125:9189   */\n      tag_204\n        /* \"#utility.yul\":9181:9188   */\n      dup9\n        /* \"#utility.yul\":9172:9178   */\n      dup3\n        /* \"#utility.yul\":9161:9170   */\n      dup10\n        /* \"#utility.yul\":9157:9179   */\n      add\n        /* \"#utility.yul\":9125:9189   */\n      tag_104\n      jump\t// in\n    tag_204:\n        /* \"#utility.yul\":9115:9189   */\n      swap2\n      pop\n        /* \"#utility.yul\":9069:9199   */\n      pop\n        /* \"#utility.yul\":8233:9206   */\n      swap3\n      swap6\n      pop\n      swap3\n      swap6\n      swap1\n      swap4\n      pop\n      jump\t// out\n        /* \"#utility.yul\":9212:9768   */\n    tag_72:\n        /* \"#utility.yul\":9251:9258   */\n      0x00\n        /* \"#utility.yul\":9274:9293   */\n      tag_206\n        /* \"#utility.yul\":9291:9292   */\n      dup3\n        /* \"#utility.yul\":9274:9293   */\n      tag_98\n      jump\t// in\n    tag_206:\n        /* \"#utility.yul\":9269:9293   */\n      swap2\n      pop\n        /* \"#utility.yul\":9307:9326   */\n      tag_207\n        /* \"#utility.yul\":9324:9325   */\n      dup4\n        /* \"#utility.yul\":9307:9326   */\n      tag_98\n      jump\t// in\n    tag_207:\n        /* \"#utility.yul\":9302:9326   */\n      swap3\n      pop\n        /* \"#utility.yul\":9361:9362   */\n      dup3\n        /* \"#utility.yul\":9358:9359   */\n      dup3\n        /* \"#utility.yul\":9354:9363   */\n      mul\n        /* \"#utility.yul\":9383:9412   */\n      tag_208\n        /* \"#utility.yul\":9400:9411   */\n      dup2\n        /* \"#utility.yul\":9383:9412   */\n      tag_98\n      jump\t// in\n    tag_208:\n        /* \"#utility.yul\":9372:9412   */\n      swap2\n      pop\n        /* \"#utility.yul\":9470:9536   */\n      0x8000000000000000000000000000000000000000000000000000000000000000\n        /* \"#utility.yul\":9467:9468   */\n      dup5\n        /* \"#utility.yul\":9464:9537   */\n      eq\n        /* \"#utility.yul\":9460:9461   */\n      0x00\n        /* \"#utility.yul\":9457:9458   */\n      dup5\n        /* \"#utility.yul\":9453:9462   */\n      slt\n        /* \"#utility.yul\":9449:9538   */\n      and\n        /* \"#utility.yul\":9446:9561   */\n      iszero\n      tag_209\n      jumpi\n        /* \"#utility.yul\":9541:9559   */\n      tag_210\n      tag_93\n      jump\t// in\n    tag_210:\n        /* \"#utility.yul\":9446:9561   */\n    tag_209:\n        /* \"#utility.yul\":9711:9712   */\n      dup3\n        /* \"#utility.yul\":9702:9709   */\n      dup3\n        /* \"#utility.yul\":9697:9713   */\n      sdiv\n        /* \"#utility.yul\":9694:9695   */\n      dup5\n        /* \"#utility.yul\":9691:9714   */\n      eq\n        /* \"#utility.yul\":9671:9672   */\n      dup4\n        /* \"#utility.yul\":9664:9673   */\n      iszero\n        /* \"#utility.yul\":9644:9728   */\n      or\n        /* \"#utility.yul\":9621:9761   */\n      tag_211\n      jumpi\n        /* \"#utility.yul\":9741:9759   */\n      tag_212\n      tag_93\n      jump\t// in\n    tag_212:\n        /* \"#utility.yul\":9621:9761   */\n    tag_211:\n        /* \"#utility.yul\":9259:9768   */\n      pop\n        /* \"#utility.yul\":9212:9768   */\n      swap3\n      swap2\n      pop\n      pop\n      jump\t// out\n\n    auxdata: 0xa26469706673582212201ae076591308a8c5500d7b572e06f8ef3b4a491c45081ac6341ea8461a3636e764736f6c63430008190033\n}\n",
				"bytecode": {
					"linkReferences": {},
					"object": "6080604052348015600e575f80fd5b50335f806101000a81548173ffffffffffffffffffffffffffffffffffffffff021916908373ffffffffffffffffffffffffffffffffffffffff160217905550610a6d8061005b5f395ff3fe608060405260043610610054575f3560e01c80633ccfd60b146100585780636b69a5921461006e5780638da5cb5b14610098578063b60d4288146100c2578063cc6cb19a146100cc578063dc0d3dff14610108575b5f80fd5b348015610063575f80fd5b5061006c610144565b005b348015610079575f80fd5b506100826102ac565b60405161008f919061053c565b60405180910390f35b3480156100a3575f80fd5b506100ac6102b9565b6040516100b99190610594565b60405180910390f35b6100ca6102dc565b005b3480156100d7575f80fd5b506100f260048036038101906100ed91906105db565b6103fc565b6040516100ff919061053c565b60405180910390f35b348015610113575f80fd5b5061012e60048036038101906101299190610630565b610411565b60405161013b9190610594565b60405180910390f35b5f8054906101000a900473ffffffffffffffffffffffffffffffffffffffff1673ffffffffffffffffffffffffffffffffffffffff163373ffffffffffffffffffffffffffffffffffffffff16146101d1576040517f08c379a00000000000000000000000000000000000000000000000000000000081526004016101c8906106b5565b60405180910390fd5b5f4790505f81116101e0575f80fd5b5f805f9054906101000a900473ffffffffffffffffffffffffffffffffffffffff1673ffffffffffffffffffffffffffffffffffffffff168260405161022590610700565b5f6040518083038185875af1925050503d805f811461025f576040519150601f19603f3d011682016040523d82523d5f602084013e610264565b606091505b50509050806102a8576040517f08c379a000000000000000000000000000000000000000000000000000000000815260040161029f9061075e565b60405180910390fd5b5050565b6802b5e3af16b188000081565b5f8054906101000a900473ffffffffffffffffffffffffffffffffffffffff1681565b6802b5e3af16b18800006102ef3461044c565b10156102f9575f80fd5b3460015f3373ffffffffffffffffffffffffffffffffffffffff1673ffffffffffffffffffffffffffffffffffffffff1681526020019081526020015f205f82825461034591906107a9565b92505081905550600233908060018154018082558091505060019003905f5260205f20015f9091909190916101000a81548173ffffffffffffffffffffffffffffffffffffffff021916908373ffffffffffffffffffffffffffffffffffffffff1602179055503373ffffffffffffffffffffffffffffffffffffffff167f264f630d9efa0d07053a31163641d9fcc0adafc9d9e76f1c37c2ce3a558d2c52346040516103f2919061053c565b60405180910390a2565b6001602052805f5260405f205f915090505481565b60028181548110610420575f80fd5b905f5260205f20015f915054906101000a900473ffffffffffffffffffffffffffffffffffffffff1681565b5f8061045661047f565b9050670de0b6b3a7640000838261046d91906107dc565b610477919061084a565b915050919050565b5f8073694aa1769357215de4fac081bf1f309adc32530690505f8173ffffffffffffffffffffffffffffffffffffffff1663feaf968c6040518163ffffffff1660e01b815260040160a060405180830381865afa1580156104e2573d5f803e3d5ffd5b505050506040513d601f19601f82011682018060405250810190610506919061094a565b5050509150506402540be4008161051d91906109c1565b9250505090565b5f819050919050565b61053681610524565b82525050565b5f60208201905061054f5f83018461052d565b92915050565b5f73ffffffffffffffffffffffffffffffffffffffff82169050919050565b5f61057e82610555565b9050919050565b61058e81610574565b82525050565b5f6020820190506105a75f830184610585565b92915050565b5f80fd5b6105ba81610574565b81146105c4575f80fd5b50565b5f813590506105d5816105b1565b92915050565b5f602082840312156105f0576105ef6105ad565b5b5f6105fd848285016105c7565b91505092915050565b61060f81610524565b8114610619575f80fd5b50565b5f8135905061062a81610606565b92915050565b5f60208284031215610645576106446105ad565b5b5f6106528482850161061c565b91505092915050565b5f82825260208201905092915050565b7f4f6e6c79204f776e65722063616e2077697468647261772066756e64730000005f82015250565b5f61069f601d8361065b565b91506106aa8261066b565b602082019050919050565b5f6020820190508181035f8301526106cc81610693565b9050919050565b5f81905092915050565b50565b5f6106eb5f836106d3565b91506106f6826106dd565b5f82019050919050565b5f61070a826106e0565b9150819050919050565b7f5769746864726177206661696c656400000000000000000000000000000000005f82015250565b5f610748600f8361065b565b915061075382610714565b602082019050919050565b5f6020820190508181035f8301526107758161073c565b9050919050565b7f4e487b71000000000000000000000000000000000000000000000000000000005f52601160045260245ffd5b5f6107b382610524565b91506107be83610524565b92508282019050808211156107d6576107d561077c565b5b92915050565b5f6107e682610524565b91506107f183610524565b92508282026107ff81610524565b915082820484148315176108165761081561077c565b5b5092915050565b7f4e487b71000000000000000000000000000000000000000000000000000000005f52601260045260245ffd5b5f61085482610524565b915061085f83610524565b92508261086f5761086e61081d565b5b828204905092915050565b5f69ffffffffffffffffffff82169050919050565b6108988161087a565b81146108a2575f80fd5b50565b5f815190506108b38161088f565b92915050565b5f819050919050565b6108cb816108b9565b81146108d5575f80fd5b50565b5f815190506108e6816108c2565b92915050565b5f815190506108fa81610606565b92915050565b5f74ffffffffffffffffffffffffffffffffffffffffff82169050919050565b61092981610900565b8114610933575f80fd5b50565b5f8151905061094481610920565b92915050565b5f805f805f60a08688031215610963576109626105ad565b5b5f610970888289016108a5565b9550506020610981888289016108d8565b9450506040610992888289016108ec565b93505060606109a3888289016108ec565b92505060806109b488828901610936565b9150509295509295909350565b5f6109cb826108b9565b91506109d6836108b9565b92508282026109e4816108b9565b91507f800000000000000000000000000000000000000000000000000000000000000084145f84121615610a1b57610a1a61077c565b5b8282058414831517610a3057610a2f61077c565b5b509291505056fea26469706673582212201ae076591308a8c5500d7b572e06f8ef3b4a491c45081ac6341ea8461a3636e764736f6c63430008190033",
					"opcodes": "PUSH1 0x80 PUSH1 0x40 MSTORE CALLVALUE DUP1 ISZERO PUSH1 0xE JUMPI PUSH0 DUP1 REVERT JUMPDEST POP CALLER PUSH0 DUP1 PUSH2 0x100 EXP DUP2 SLOAD DUP2 PUSH20 0xFFFFFFFFFFFFFFFFFFFFFFFFFFFFFFFFFFFFFFFF MUL NOT AND SWAP1 DUP4 PUSH20 0xFFFFFFFFFFFFFFFFFFFFFFFFFFFFFFFFFFFFFFFF AND MUL OR SWAP1 SSTORE POP PUSH2 0xA6D DUP1 PUSH2 0x5B PUSH0 CODECOPY PUSH0 RETURN INVALID PUSH1 0x80 PUSH1 0x40 MSTORE PUSH1 0x4 CALLDATASIZE LT PUSH2 0x54 JUMPI PUSH0 CALLDATALOAD PUSH1 0xE0 SHR DUP1 PUSH4 0x3CCFD60B EQ PUSH2 0x58 JUMPI DUP1 PUSH4 0x6B69A592 EQ PUSH2 0x6E JUMPI DUP1 PUSH4 0x8DA5CB5B EQ PUSH2 0x98 JUMPI DUP1 PUSH4 0xB60D4288 EQ PUSH2 0xC2 JUMPI DUP1 PUSH4 0xCC6CB19A EQ PUSH2 0xCC JUMPI DUP1 PUSH4 0xDC0D3DFF EQ PUSH2 0x108 JUMPI JUMPDEST PUSH0 DUP1 REVERT JUMPDEST CALLVALUE DUP1 ISZERO PUSH2 0x63 JUMPI PUSH0 DUP1 REVERT JUMPDEST POP PUSH2 0x6C PUSH2 0x144 JUMP JUMPDEST STOP JUMPDEST CALLVALUE DUP1 ISZERO PUSH2 0x79 JUMPI PUSH0 DUP1 REVERT JUMPDEST POP PUSH2 0x82 PUSH2 0x2AC JUMP JUMPDEST PUSH1 0x40 MLOAD PUSH2 0x8F SWAP2 SWAP1 PUSH2 0x53C JUMP JUMPDEST PUSH1 0x40 MLOAD DUP1 SWAP2 SUB SWAP1 RETURN JUMPDEST CALLVALUE DUP1 ISZERO PUSH2 0xA3 JUMPI PUSH0 DUP1 REVERT JUMPDEST POP PUSH2 0xAC PUSH2 0x2B9 JUMP JUMPDEST PUSH1 0x40 MLOAD PUSH2 0xB9 SWAP2 SWAP1 PUSH2 0x594 JUMP JUMPDEST PUSH1 0x40 MLOAD DUP1 SWAP2 SUB SWAP1 RETURN JUMPDEST PUSH2 0xCA PUSH2 0x2DC JUMP JUMPDEST STOP JUMPDEST CALLVALUE DUP1 ISZERO PUSH2 0xD7 JUMPI PUSH0 DUP1 REVERT JUMPDEST POP PUSH2 0xF2 PUSH1 0x4 DUP1 CALLDATASIZE SUB DUP2 ADD SWAP1 PUSH2 0xED SWAP2 SWAP1 PUSH2 0x5DB JUMP JUMPDEST PUSH2 0x3FC JUMP JUMPDEST PUSH1 0x40 MLOAD PUSH2 0xFF SWAP2 SWAP1 PUSH2 0x53C JUMP JUMPDEST PUSH1 0x40 MLOAD DUP1 SWAP2 SUB SWAP1 RETURN JUMPDEST CALLVALUE DUP1 ISZERO PUSH2 0x113 JUMPI PUSH0 DUP1 REVERT JUMPDEST POP PUSH2 0x12E PUSH1 0x4 DUP1 CALLDATASIZE SUB DUP2 ADD SWAP1 PUSH2 0x129 SWAP2 SWAP1 PUSH2 0x630 JUMP JUMPDEST PUSH2 0x411 JUMP JUMPDEST PUSH1 0x40 MLOAD PUSH2 0x13B SWAP2 SWAP1 PUSH2 0x594 JUMP JUMPDEST PUSH1 0x40 MLOAD DUP1 SWAP2 SUB SWAP1 RETURN JUMPDEST PUSH0 DUP1 SLOAD SWAP1 PUSH2 0x100 EXP SWAP1 DIV PUSH20 0xFFFFFFFFFFFFFFFFFFFFFFFFFFFFFFFFFFFFFFFF AND PUSH20 0xFFFFFFFFFFFFFFFFFFFFFFFFFFFFFFFFFFFFFFFF AND CALLER PUSH20 0xFFFFFFFFFFFFFFFFFFFFFFFFFFFFFFFFFFFFFFFF AND EQ PUSH2 0x1D1 JUMPI PUSH1 0x40 MLOAD PUSH32 0x8C379A000000000000000000000000000000000000000000000000000000000 DUP2 MSTORE PUSH1 0x4 ADD PUSH2 0x1C8 SWAP1 PUSH2 0x6B5 JUMP JUMPDEST PUSH1 0x40 MLOAD DUP1 SWAP2 SUB SWAP1 REVERT JUMPDEST PUSH0 SELFBALANCE SWAP1 POP PUSH0 DUP2 GT PUSH2 0x1E0 JUMPI PUSH0 DUP1 REVERT JUMPDEST PUSH0 DUP1 PUSH0 SWAP1 SLOAD SWAP1 PUSH2 0x100 EXP SWAP1 DIV PUSH20 0xFFFFFFFFFFFFFFFFFFFFFFFFFFFFFFFFFFFFFFFF AND PUSH20 0xFFFFFFFFFFFFFFFFFFFFFFFFFFFFFFFFFFFFFFFF AND DUP3 PUSH1 0x40 MLOAD PUSH2 0x225 SWAP1 PUSH2 0x700 JUMP JUMPDEST PUSH0 PUSH1 0x40 MLOAD DUP1 DUP4 SUB DUP2 DUP6 DUP8 GAS CALL SWAP3 POP POP POP RETURNDATASIZE DUP1 PUSH0 DUP2 EQ PUSH2 0x25F JUMPI PUSH1 0x40 MLOAD SWAP2 POP PUSH1 0x1F NOT PUSH1 0x3F RETURNDATASIZE ADD AND DUP3 ADD PUSH1 0x40 MSTORE RETURNDATASIZE DUP3 MSTORE RETURNDATASIZE PUSH0 PUSH1 0x20 DUP5 ADD RETURNDATACOPY PUSH2 0x264 JUMP JUMPDEST PUSH1 0x60 SWAP2 POP JUMPDEST POP POP SWAP1 POP DUP1 PUSH2 0x2A8 JUMPI PUSH1 0x40 MLOAD PUSH32 0x8C379A000000000000000000000000000000000000000000000000000000000 DUP2 MSTORE PUSH1 0x4 ADD PUSH2 0x29F SWAP1 PUSH2 0x75E JUMP JUMPDEST PUSH1 0x40 MLOAD DUP1 SWAP2 SUB SWAP1 REVERT JUMPDEST POP POP JUMP JUMPDEST PUSH9 0x2B5E3AF16B1880000 DUP2 JUMP JUMPDEST PUSH0 DUP1 SLOAD SWAP1 PUSH2 0x100 EXP SWAP1 DIV PUSH20 0xFFFFFFFFFFFFFFFFFFFFFFFFFFFFFFFFFFFFFFFF AND DUP2 JUMP JUMPDEST PUSH9 0x2B5E3AF16B1880000 PUSH2 0x2EF CALLVALUE PUSH2 0x44C JUMP JUMPDEST LT ISZERO PUSH2 0x2F9 JUMPI PUSH0 DUP1 REVERT JUMPDEST CALLVALUE PUSH1 0x1 PUSH0 CALLER PUSH20 0xFFFFFFFFFFFFFFFFFFFFFFFFFFFFFFFFFFFFFFFF AND PUSH20 0xFFFFFFFFFFFFFFFFFFFFFFFFFFFFFFFFFFFFFFFF AND DUP2 MSTORE PUSH1 0x20 ADD SWAP1 DUP2 MSTORE PUSH1 0x20 ADD PUSH0 KECCAK256 PUSH0 DUP3 DUP3 SLOAD PUSH2 0x345 SWAP2 SWAP1 PUSH2 0x7A9 JUMP JUMPDEST SWAP3 POP POP DUP2 SWAP1 SSTORE POP PUSH1 0x2 CALLER SWAP1 DUP1 PUSH1 0x1 DUP2 SLOAD ADD DUP1 DUP3 SSTORE DUP1 SWAP2 POP POP PUSH1 0x1 SWAP1 SUB SWAP1 PUSH0 MSTORE PUSH1 0x20 PUSH0 KECCAK256 ADD PUSH0 SWAP1 SWAP2 SWAP1 SWAP2 SWAP1 SWAP2 PUSH2 0x100 EXP DUP2 SLOAD DUP2 PUSH20 0xFFFFFFFFFFFFFFFFFFFFFFFFFFFFFFFFFFFFFFFF MUL NOT AND SWAP1 DUP4 PUSH20 0xFFFFFFFFFFFFFFFFFFFFFFFFFFFFFFFFFFFFFFFF AND MUL OR SWAP1 SSTORE POP CALLER PUSH20 0xFFFFFFFFFFFFFFFFFFFFFFFFFFFFFFFFFFFFFFFF AND PUSH32 0x264F630D9EFA0D07053A31163641D9FCC0ADAFC9D9E76F1C37C2CE3A558D2C52 CALLVALUE PUSH1 0x40 MLOAD PUSH2 0x3F2 SWAP2 SWAP1 PUSH2 0x53C JUMP JUMPDEST PUSH1 0x40 MLOAD DUP1 SWAP2 SUB SWAP1 LOG2 JUMP JUMPDEST PUSH1 0x1 PUSH1 0x20 MSTORE DUP1 PUSH0 MSTORE PUSH1 0x40 PUSH0 KECCAK256 PUSH0 SWAP2 POP SWAP1 POP SLOAD DUP2 JUMP JUMPDEST PUSH1 0x2 DUP2 DUP2 SLOAD DUP2 LT PUSH2 0x420 JUMPI PUSH0 DUP1 REVERT JUMPDEST SWAP1 PUSH0 MSTORE PUSH1 0x20 PUSH0 KECCAK256 ADD PUSH0 SWAP2 POP SLOAD SWAP1 PUSH2 0x100 EXP SWAP1 DIV PUSH20 0xFFFFFFFFFFFFFFFFFFFFFFFFFFFFFFFFFFFFFFFF AND DUP2 JUMP JUMPDEST PUSH0 DUP1 PUSH2 0x456 PUSH2 0x47F JUMP JUMPDEST SWAP1 POP PUSH8 0xDE0B6B3A7640000 DUP4 DUP3 PUSH2 0x46D SWAP2 SWAP1 PUSH2 0x7DC JUMP JUMPDEST PUSH2 0x477 SWAP2 SWAP1 PUSH2 0x84A JUMP JUMPDEST SWAP2 POP POP SWAP2 SWAP1 POP JUMP JUMPDEST PUSH0 DUP1 PUSH20 0x694AA1769357215DE4FAC081BF1F309ADC325306 SWAP1 POP PUSH0 DUP2 PUSH20 0xFFFFFFFFFFFFFFFFFFFFFFFFFFFFFFFFFFFFFFFF AND PUSH4 0xFEAF968C PUSH1 0x40 MLOAD DUP2 PUSH4 0xFFFFFFFF AND PUSH1 0xE0 SHL DUP2 MSTORE PUSH1 0x4 ADD PUSH1 0xA0 PUSH1 0x40 MLOAD DUP1 DUP4 SUB DUP2 DUP7 GAS STATICCALL ISZERO DUP1 ISZERO PUSH2 0x4E2 JUMPI RETURNDATASIZE PUSH0 DUP1 RETURNDATACOPY RETURNDATASIZE PUSH0 REVERT JUMPDEST POP POP POP POP PUSH1 0x40 MLOAD RETURNDATASIZE PUSH1 0x1F NOT PUSH1 0x1F DUP3 ADD AND DUP3 ADD DUP1 PUSH1 0x40 MSTORE POP DUP2 ADD SWAP1 PUSH2 0x506 SWAP2 SWAP1 PUSH2 0x94A JUMP JUMPDEST POP POP POP SWAP2 POP POP PUSH5 0x2540BE400 DUP2 PUSH2 0x51D SWAP2 SWAP1 PUSH2 0x9C1 JUMP JUMPDEST SWAP3 POP POP POP SWAP1 JUMP JUMPDEST PUSH0 DUP2 SWAP1 POP SWAP2 SWAP1 POP JUMP JUMPDEST PUSH2 0x536 DUP2 PUSH2 0x524 JUMP JUMPDEST DUP3 MSTORE POP POP JUMP JUMPDEST PUSH0 PUSH1 0x20 DUP3 ADD SWAP1 POP PUSH2 0x54F PUSH0 DUP4 ADD DUP5 PUSH2 0x52D JUMP JUMPDEST SWAP3 SWAP2 POP POP JUMP JUMPDEST PUSH0 PUSH20 0xFFFFFFFFFFFFFFFFFFFFFFFFFFFFFFFFFFFFFFFF DUP3 AND SWAP1 POP SWAP2 SWAP1 POP JUMP JUMPDEST PUSH0 PUSH2 0x57E DUP3 PUSH2 0x555 JUMP JUMPDEST SWAP1 POP SWAP2 SWAP1 POP JUMP JUMPDEST PUSH2 0x58E DUP2 PUSH2 0x574 JUMP JUMPDEST DUP3 MSTORE POP POP JUMP JUMPDEST PUSH0 PUSH1 0x20 DUP3 ADD SWAP1 POP PUSH2 0x5A7 PUSH0 DUP4 ADD DUP5 PUSH2 0x585 JUMP JUMPDEST SWAP3 SWAP2 POP POP JUMP JUMPDEST PUSH0 DUP1 REVERT JUMPDEST PUSH2 0x5BA DUP2 PUSH2 0x574 JUMP JUMPDEST DUP2 EQ PUSH2 0x5C4 JUMPI PUSH0 DUP1 REVERT JUMPDEST POP JUMP JUMPDEST PUSH0 DUP2 CALLDATALOAD SWAP1 POP PUSH2 0x5D5 DUP2 PUSH2 0x5B1 JUMP JUMPDEST SWAP3 SWAP2 POP POP JUMP JUMPDEST PUSH0 PUSH1 0x20 DUP3 DUP5 SUB SLT ISZERO PUSH2 0x5F0 JUMPI PUSH2 0x5EF PUSH2 0x5AD JUMP JUMPDEST JUMPDEST PUSH0 PUSH2 0x5FD DUP5 DUP3 DUP6 ADD PUSH2 0x5C7 JUMP JUMPDEST SWAP2 POP POP SWAP3 SWAP2 POP POP JUMP JUMPDEST PUSH2 0x60F DUP2 PUSH2 0x524 JUMP JUMPDEST DUP2 EQ PUSH2 0x619 JUMPI PUSH0 DUP1 REVERT JUMPDEST POP JUMP JUMPDEST PUSH0 DUP2 CALLDATALOAD SWAP1 POP PUSH2 0x62A DUP2 PUSH2 0x606 JUMP JUMPDEST SWAP3 SWAP2 POP POP JUMP JUMPDEST PUSH0 PUSH1 0x20 DUP3 DUP5 SUB SLT ISZERO PUSH2 0x645 JUMPI PUSH2 0x644 PUSH2 0x5AD JUMP JUMPDEST JUMPDEST PUSH0 PUSH2 0x652 DUP5 DUP3 DUP6 ADD PUSH2 0x61C JUMP JUMPDEST SWAP2 POP POP SWAP3 SWAP2 POP POP JUMP JUMPDEST PUSH0 DUP3 DUP3 MSTORE PUSH1 0x20 DUP3 ADD SWAP1 POP SWAP3 SWAP2 POP POP JUMP JUMPDEST PUSH32 0x4F6E6C79204F776E65722063616E2077697468647261772066756E6473000000 PUSH0 DUP3 ADD MSTORE POP JUMP JUMPDEST PUSH0 PUSH2 0x69F PUSH1 0x1D DUP4 PUSH2 0x65B JUMP JUMPDEST SWAP2 POP PUSH2 0x6AA DUP3 PUSH2 0x66B JUMP JUMPDEST PUSH1 0x20 DUP3 ADD SWAP1 POP SWAP2 SWAP1 POP JUMP JUMPDEST PUSH0 PUSH1 0x20 DUP3 ADD SWAP1 POP DUP2 DUP2 SUB PUSH0 DUP4 ADD MSTORE PUSH2 0x6CC DUP2 PUSH2 0x693 JUMP JUMPDEST SWAP1 POP SWAP2 SWAP1 POP JUMP JUMPDEST PUSH0 DUP2 SWAP1 POP SWAP3 SWAP2 POP POP JUMP JUMPDEST POP JUMP JUMPDEST PUSH0 PUSH2 0x6EB PUSH0 DUP4 PUSH2 0x6D3 JUMP JUMPDEST SWAP2 POP PUSH2 0x6F6 DUP3 PUSH2 0x6DD JUMP JUMPDEST PUSH0 DUP3 ADD SWAP1 POP SWAP2 SWAP1 POP JUMP JUMPDEST PUSH0 PUSH2 0x70A DUP3 PUSH2 0x6E0 JUMP JUMPDEST SWAP2 POP DUP2 SWAP1 POP SWAP2 SWAP1 POP JUMP JUMPDEST PUSH32 0x5769746864726177206661696C65640000000000000000000000000000000000 PUSH0 DUP3 ADD MSTORE POP JUMP JUMPDEST PUSH0 PUSH2 0x748 PUSH1 0xF DUP4 PUSH2 0x65B JUMP JUMPDEST SWAP2 POP PUSH2 0x753 DUP3 PUSH2 0x714 JUMP JUMPDEST PUSH1 0x20 DUP3 ADD SWAP1 POP SWAP2 SWAP1 POP JUMP JUMPDEST PUSH0 PUSH1 0x20 DUP3 ADD SWAP1 POP DUP2 DUP2 SUB PUSH0 DUP4 ADD MSTORE PUSH2 0x775 DUP2 PUSH2 0x73C JUMP JUMPDEST SWAP1 POP SWAP2 SWAP1 POP JUMP JUMPDEST PUSH32 0x4E487B7100000000000000000000000000000000000000000000000000000000 PUSH0 MSTORE PUSH1 0x11 PUSH1 0x4 MSTORE PUSH1 0x24 PUSH0 REVERT JUMPDEST PUSH0 PUSH2 0x7B3 DUP3 PUSH2 0x524 JUMP JUMPDEST SWAP2 POP PUSH2 0x7BE DUP4 PUSH2 0x524 JUMP JUMPDEST SWAP3 POP DUP3 DUP3 ADD SWAP1 POP DUP1 DUP3 GT ISZERO PUSH2 0x7D6 JUMPI PUSH2 0x7D5 PUSH2 0x77C JUMP JUMPDEST JUMPDEST SWAP3 SWAP2 POP POP JUMP JUMPDEST PUSH0 PUSH2 0x7E6 DUP3 PUSH2 0x524 JUMP JUMPDEST SWAP2 POP PUSH2 0x7F1 DUP4 PUSH2 0x524 JUMP JUMPDEST SWAP3 POP DUP3 DUP3 MUL PUSH2 0x7FF DUP2 PUSH2 0x524 JUMP JUMPDEST SWAP2 POP DUP3 DUP3 DIV DUP5 EQ DUP4 ISZERO OR PUSH2 0x816 JUMPI PUSH2 0x815 PUSH2 0x77C JUMP JUMPDEST JUMPDEST POP SWAP3 SWAP2 POP POP JUMP JUMPDEST PUSH32 0x4E487B7100000000000000000000000000000000000000000000000000000000 PUSH0 MSTORE PUSH1 0x12 PUSH1 0x4 MSTORE PUSH1 0x24 PUSH0 REVERT JUMPDEST PUSH0 PUSH2 0x854 DUP3 PUSH2 0x524 JUMP JUMPDEST SWAP2 POP PUSH2 0x85F DUP4 PUSH2 0x524 JUMP JUMPDEST SWAP3 POP DUP3 PUSH2 0x86F JUMPI PUSH2 0x86E PUSH2 0x81D JUMP JUMPDEST JUMPDEST DUP3 DUP3 DIV SWAP1 POP SWAP3 SWAP2 POP POP JUMP JUMPDEST PUSH0 PUSH10 0xFFFFFFFFFFFFFFFFFFFF DUP3 AND SWAP1 POP SWAP2 SWAP1 POP JUMP JUMPDEST PUSH2 0x898 DUP2 PUSH2 0x87A JUMP JUMPDEST DUP2 EQ PUSH2 0x8A2 JUMPI PUSH0 DUP1 REVERT JUMPDEST POP JUMP JUMPDEST PUSH0 DUP2 MLOAD SWAP1 POP PUSH2 0x8B3 DUP2 PUSH2 0x88F JUMP JUMPDEST SWAP3 SWAP2 POP POP JUMP JUMPDEST PUSH0 DUP2 SWAP1 POP SWAP2 SWAP1 POP JUMP JUMPDEST PUSH2 0x8CB DUP2 PUSH2 0x8B9 JUMP JUMPDEST DUP2 EQ PUSH2 0x8D5 JUMPI PUSH0 DUP1 REVERT JUMPDEST POP JUMP JUMPDEST PUSH0 DUP2 MLOAD SWAP1 POP PUSH2 0x8E6 DUP2 PUSH2 0x8C2 JUMP JUMPDEST SWAP3 SWAP2 POP POP JUMP JUMPDEST PUSH0 DUP2 MLOAD SWAP1 POP PUSH2 0x8FA DUP2 PUSH2 0x606 JUMP JUMPDEST SWAP3 SWAP2 POP POP JUMP JUMPDEST PUSH0 PUSH21 0xFFFFFFFFFFFFFFFFFFFFFFFFFFFFFFFFFFFFFFFFFF DUP3 AND SWAP1 POP SWAP2 SWAP1 POP JUMP JUMPDEST PUSH2 0x929 DUP2 PUSH2 0x900 JUMP JUMPDEST DUP2 EQ PUSH2 0x933 JUMPI PUSH0 DUP1 REVERT JUMPDEST POP JUMP JUMPDEST PUSH0 DUP2 MLOAD SWAP1 POP PUSH2 0x944 DUP2 PUSH2 0x920 JUMP JUMPDEST SWAP3 SWAP2 POP POP JUMP JUMPDEST PUSH0 DUP1 PUSH0 DUP1 PUSH0 PUSH1 0xA0 DUP7 DUP9 SUB SLT ISZERO PUSH2 0x963 JUMPI PUSH2 0x962 PUSH2 0x5AD JUMP JUMPDEST JUMPDEST PUSH0 PUSH2 0x970 DUP9 DUP3 DUP10 ADD PUSH2 0x8A5 JUMP JUMPDEST SWAP6 POP POP PUSH1 0x20 PUSH2 0x981 DUP9 DUP3 DUP10 ADD PUSH2 0x8D8 JUMP JUMPDEST SWAP5 POP POP PUSH1 0x40 PUSH2 0x992 DUP9 DUP3 DUP10 ADD PUSH2 0x8EC JUMP JUMPDEST SWAP4 POP POP PUSH1 0x60 PUSH2 0x9A3 DUP9 DUP3 DUP10 ADD PUSH2 0x8EC JUMP JUMPDEST SWAP3 POP POP PUSH1 0x80 PUSH2 0x9B4 DUP9 DUP3 DUP10 ADD PUSH2 0x936 JUMP JUMPDEST SWAP2 POP POP SWAP3 SWAP6 POP SWAP3 SWAP6 SWAP1 SWAP4 POP JUMP JUMPDEST PUSH0 PUSH2 0x9CB DUP3 PUSH2 0x8B9 JUMP JUMPDEST SWAP2 POP PUSH2 0x9D6 DUP4 PUSH2 0x8B9 JUMP JUMPDEST SWAP3 POP DUP3 DUP3 MUL PUSH2 0x9E4 DUP2 PUSH2 0x8B9 JUMP JUMPDEST SWAP2 POP PUSH32 0x8000000000000000000000000000000000000000000000000000000000000000 DUP5 EQ PUSH0 DUP5 SLT AND ISZERO PUSH2 0xA1B JUMPI PUSH2 0xA1A PUSH2 0x77C JUMP JUMPDEST JUMPDEST DUP3 DUP3 SDIV DUP5 EQ DUP4 ISZERO OR PUSH2 0xA30 JUMPI PUSH2 0xA2F PUSH2 0x77C JUMP JUMPDEST JUMPDEST POP SWAP3 SWAP2 POP POP JUMP INVALID LOG2 PUSH5 0x6970667358 0x22 SLT KECCAK256 BYTE 0xE0 PUSH23 0x591308A8C5500D7B572E06F8EF3B4A491C45081AC6341E 0xA8 CHAINID BYTE CALLDATASIZE CALLDATASIZE 0xE7 PUSH5 0x736F6C6343 STOP ADDMOD NOT STOP CALLER "
				},
				"gasEstimates": {
					"creation": {
						"codeDepositCost": "533800",
						"executionCost": "24831",
						"totalCost": "558631"
					},
					"external": {
						"MINIMUM_USD()": "325",
						"donations(address)": "2868",
						"fund()": "infinite",
						"funders(uint256)": "5032",
						"owner()": "2527",
						"withdraw()": "infinite"
					}
				},
				"methodIdentifiers": {
					"MINIMUM_USD()": "6b69a592",
					"donations(address)": "cc6cb19a",
					"fund()": "b60d4288",
					"funders(uint256)": "dc0d3dff",
					"owner()": "8da5cb5b",
					"withdraw()": "3ccfd60b"
				}
			},
			"storageLayout": {
				"storage": [
					{
						"astId": 7,
						"contract": "Donation.sol:Donation",
						"label": "owner",
						"offset": 0,
						"slot": "0",
						"type": "t_address"
					},
					{
						"astId": 16,
						"contract": "Donation.sol:Donation",
						"label": "donations",
						"offset": 0,
						"slot": "1",
						"type": "t_mapping(t_address,t_uint256)"
					},
					{
						"astId": 19,
						"contract": "Donation.sol:Donation",
						"label": "funders",
						"offset": 0,
						"slot": "2",
						"type": "t_array(t_address)dyn_storage"
					}
				],
				"types": {
					"t_address": {
						"encoding": "inplace",
						"label": "address",
						"numberOfBytes": "20"
					},
					"t_array(t_address)dyn_storage": {
						"base": "t_address",
						"encoding": "dynamic_array",
						"label": "address[]",
						"numberOfBytes": "32"
					},
					"t_mapping(t_address,t_uint256)": {
						"encoding": "mapping",
						"key": "t_address",
						"label": "mapping(address => uint256)",
						"numberOfBytes": "32",
						"value": "t_uint256"
					},
					"t_uint256": {
						"encoding": "inplace",
						"label": "uint256",
						"numberOfBytes": "32"
					}
				}
			},
			"userdoc": {
				"kind": "user",
				"methods": {},
				"version": 1
			}
		}
	}
}